:100000000C9463000C94820D0C945B0D0C948B008B
:100010000C948B000C948B000C948B000C94A90D09
:100020000C948B000C948B000C948B000C94830E1E
:100030000C948B000C948B000C948B000C948B0014
:100040000C94110D0C948B000C94510E0C942B0EEF
:100050000C948B000C948B000C948B000C948B00F4
:100060000C943F0F0C948B0000000000230026002E
:10007000290000000000240027002A0001020408D3
:100080001020408001020408102001020408102002
:1000900000000000250028002B00040404040404D0
:1000A0000404020202020202030303030303020028
:1000B0000000080002010000030407000000000027
:1000C00000000000F41011241FBECFEFD8E0DEBF07
:1000D000CDBF12E0A0E0B1E0EAE6FCE302C005908B
:1000E0000D92A632B107D9F725E0A6E2B2E001C031
:1000F0001D92A03EB207E1F710E0C3E6D0E004C0D5
:100100002197FE010E942B1AC236D107C9F70E941F
:10011000BF110C94331E0C94000008950895CF92E3
:10012000DF92EF92FF92DC01A03282E0B807D4F5B3
:10013000A53BB10514F0A4EBB0E04091090528E817
:1001400030E0241B310947FD3395220F331F220F66
:10015000331F6901330FEE08FF0840910A0528E5B7
:1001600032E0241B310947FD3395220F331F220F44
:10017000331F032E000C440B550B2C193D094E095F
:100180005F09B7FF02C0B0E0A0E00E94BE1924EBF7
:1001900030E040E050E00E949419C20ED31EE41EED
:1001A000F51ED601E0910805EC3080F52091090597
:1001B00088E890E0821B910927FD9395880F991F8D
:1001C000880F991FA817B90784F020910A0588E5C0
:1001D00092E0821B910927FD9395880F991F880F44
:1001E000991FA817B9070CF4CD010297880F991F22
:1001F0004FB7F8942E2F30E0F901EE0FFF1FE20FFA
:10020000F31FE353FB4F928381834FBFFF90EF9027
:10021000DF90CF90089590E0FC01E155FF4F2491CD
:10022000FC01E458FF4F3491FC01E656FF4FE49186
:10023000EE23C9F0222339F0233001F1A8F4213054
:1002400019F1223029F1F0E0EE0FFF1FE057FF4FC8
:10025000A591B4918FB7F894EC91611126C03095B7
:100260003E233C938FBF08952730A9F02830C9F072
:10027000243049F7809180008F7D03C080918000F9
:100280008F7780938000DFCF84B58F7784BDDBCFFD
:1002900084B58F7DFBCF8091B0008F778093B000C5
:1002A000D2CF8091B0008F7DF9CF3E2BDACFCF93A4
:1002B000DF9390E0FC01E458FF4F249186569F4F56
:1002C000FC0184918823C9F090E0880F991FFC01FC
:1002D000EE58FF4FA591B491FC01E057FF4FC59137
:1002E000D49161110DC09FB7F8948C912095822311
:1002F0008C938881282328839FBFDF91CF91089515
:10030000623051F49FB7F8943C91822F80958323FB
:100310008C93E8812E2BEFCF8FB7F894EC912E2B96
:100320002C938FBFEACFCF93DF93EC0161E086E09F
:100330000E945701209731F460E086E0DF91CF9171
:100340000C940B01CF3FD10511F461E0F6CFE5EB42
:10035000F0E0E491E33029F140F4E130B1F0E23033
:10036000D9F0C038D1058CF7E7CFE73021F1E8307C
:1003700051F1E430B1F78091800080628093800079
:10038000D0938B00C0938A0004C084B5806884BD7C
:10039000C7BDDF91CF91089584B5806284BDC8BD8B
:1003A000F8CF80918000806880938000D09389008E
:1003B000C0938800EECF8091B00080688093B00039
:1003C000C093B300E6CF8091B00080628093B0000C
:1003D000C093B400DECF8F929F92AF92BF92CF9224
:1003E000DF92EF92FF920F931F93CF938C01809136
:1003F0000601883079F08F3F09F44DC0CF911F91ED
:100400000F91FF90EF90DF90CF90BF90AF909F90B3
:100410008F900895EEEAF0E0C491C7FDEFCF61E060
:1004200088E00E945701CC2319F0C23009F0E7C0E0
:10043000B12CA12C60E472E48FE090E0A50198015A
:100440000E94941969017A0181E0C81AD108E10873
:10045000F108C23009F08EC092E08FEFC816D104C7
:10046000E104F10489F084F060E970ED83E090E04C
:10047000A50198010E94941969017A0181E0C81AC6
:10048000D108E108F10893E08091B100887F892BC1
:100490008093B10092C088E080930601EEEAF0E01C
:1004A000C491CF3F09F4AACFC13021F150F0C2303E
:1004B00009F43EC0C7FDA2CF61E088E00E94570169
:1004C000B4CF14BC15BC84B5826084BD85B5816091
:1004D00085BDE2EAF0E0E491F0E0EE0FFF1FE057A7
:1004E000FF4F85919491E4E8F0E0E491E0932903D3
:1004F000C0E095CF10928000109281008091810021
:100500008860809381008091810081608093810068
:10051000E2EAF0E0E491F0E0EE0FFF1FE057FF4F5A
:1005200085919491E4E8F0E0E491E093280377CF9B
:100530001092B0001092B1008091B0008260809360
:10054000B0008091B10081608093B100E2EAF0E0F8
:10055000E491F0E0EE0FFF1FE057FF4F859194917B
:100560009093270380932603E4E8F0E0E491E0937E
:10057000250355CF8FEFC816D104E104F104A9F08B
:10058000A4F068E478EE81E090E0A50198010E9473
:10059000941969017A0181E0C81AD108E108F108CB
:1005A00094E0C11171CF93E003C092E0C1116CCF10
:1005B00085B5887F892B85BDC0E09801220F331F48
:1005C000AAE0B0E00E94E81928EE33E040E050E0F5
:1005D0000E94C619C13061F1C230E1F1C1110ECFE4
:1005E000C7BC2093320330933303409334035093BA
:1005F000350380916E00826080936E00FFCE98017B
:1006000050E040E060E072E18AE790E00E949419D7
:1006100069017A0181E0C81AD108E108F108C13006
:1006200061F680918100887F816080938100C5CFD1
:10063000D0928900C092880020932E0330932F031C
:10064000409330035093310380916F008260809318
:100650006F00D4CEC092B30020932A0330932B03B3
:1006600040932C0350932D038091700082608093FF
:100670007000C4CE3FB7F89480912103909122037B
:10068000A0912303B091240326B5A89B05C02F3F5A
:1006900019F00196A11DB11D3FBFBA2FA92F982FA8
:1006A0008827BC01CD01620F711D811D911D42E0A3
:1006B000660F771F881F991F4A95D1F708958F926B
:1006C0009F92AF92BF92CF92DF92EF92FF924B0137
:1006D0005C010E943A036B017C010E943A036C1991
:1006E0007D098E099F09683E734081059105A8F335
:1006F00021E0821A9108A108B10888EEC80E83E0B3
:10070000D81EE11CF11C81149104A104B10429F745
:10071000FF90EF90DF90CF90BF90AF909F908F9021
:1007200008952FB7F89460911D0370911E03809176
:100730001F03909120032FBF089580911303909180
:100740001403A0911503B09116030196A11DB11DCC
:100750008093130390931403A0931503B09316038F
:1007600008950895AF92BF92CF92DF92EF92FF92D9
:100770000F931F93CF93DF936C017B018B01040FC9
:10078000151FEB015E01AE18BF08C017D10759F065
:100790006991D601ED91FC910190F081E02DC601A7
:1007A0000995892B79F7C501DF91CF911F910F91A1
:1007B000FF90EF90DF90CF90BF90AF900895FC0135
:1007C000538D448D252F30E0842F90E0821B930BB6
:1007D000541710F0CF96089501970895FC01918D5C
:1007E000828D981761F0A28DAE0FBF2FB11D5D965F
:1007F0008C91928D9F5F9F73928F90E008958FEF01
:100800009FEF0895FC01918D828D981731F0828DB4
:10081000E80FF11D858D90E008958FEF9FEF08950B
:10082000FC01918D228D892F90E0805C9F4F821B6F
:1008300091098F739927089580E394E00E94100432
:1008400021E0892B09F420E0822F089580E090E0D8
:10085000892B29F00E941C0481110C94000008953A
:10086000FC01A48DA80FB92FB11DA35ABF4F2C9125
:10087000848D90E001968F739927848FA689B7891C
:100880002C93A089B1898C91837080648C93938D13
:10089000848D981306C00288F389E02D80818F7DB6
:1008A00080830895EF92FF920F931F93CF93DF936E
:1008B000EC0181E0888F9B8D8C8D98131AC0E8899C
:1008C000F989808185FF15C09FB7F894EE89FF896B
:1008D0006083E889F98980818370806480839FBF09
:1008E00081E090E0DF91CF911F910F91FF90EF9009
:1008F0000895F62E0B8D10E00F5F1F4F0F73112719
:10090000E02E8C8D8E110CC00FB607FCFACFE88953
:10091000F989808185FFF5CFCE010E943004F1CFA7
:10092000EB8DEC0FFD2FF11DE35AFF4FF0829FB7C7
:10093000F8940B8FEA89FB8980818062CFCFCF93B7
:10094000DF93EC01888D8823B9F0AA89BB89E889F7
:10095000F9898C9185FD03C0808186FD0DC00FB69D
:1009600007FCF7CF8C9185FFF2CF808185FFEDCF1B
:10097000CE010E943004E9CFDF91CF91089580919C
:100980006F02909170028F379105D4F42BEF280FEE
:1009900020937402E1E7F2E020E0AF0141575240BA
:1009A0004817590754F0FC01EF58FD4F208301967A
:1009B0009093700280936F0208953191230FEDCFD1
:1009C00090E080E0089520913C0330913D038091B8
:1009D0006D0290916E022817390724F480913B0331
:1009E000882331F081E080933A0390E080E008951D
:1009F000F901E25CFC4F808191812E5F3F4F309383
:100A00003D0320933C03089520916B0230916C02CA
:100A100021303105F1F13CF52115310579F1F9016C
:100A2000E25CFC4F808340914103842F90E0059667
:100A30002817390739F590936E0280936D02109252
:100A40006C0210926B024B5FEEE3F3E030E020E0CB
:100A5000341768F19927FC01E25CFC4F81E090813A
:100A600092131DC0089522303105F1F02330310575
:100A7000B1F68A3780F48093410304C0853579F458
:100A800080933E032F5F3F4F30936C0220936B02A5
:100A900006C08A3A31F010926C0210926B0280E02C
:100AA000E1CF80933F03EECF80934003EBCF519192
:100AB000250F3F5FCDCF0895089520914702260F5F
:100AC0003327331F21323105ECF420910604FC0159
:100AD00090E080E0243069F082E00895A091470220
:100AE0002191AC01495D5D4FA40FB52FB11D2C9331
:100AF0000196861798F380914702680F609347022A
:100B000080E0089581E008951092060481E08093CA
:100B100005041092E00361E082E10E940B0161E0B4
:100B200083E10E940B01E9EBF0E080818E7F8083FE
:100B300080818D7F808388E48093B80085E48093F2
:100B4000BC0008951092BF031092BE0310920D04D2
:100B500010922F040E9484058DE890E09093390351
:100B6000809338038EE890E09093370380933603A8
:100B70000895CF93DF9391E0909326028823B9F0F4
:100B8000C091B800D091BA008091BC008A7B80935C
:100B9000BC0060E082E10E940B0160E083E10E9402
:100BA0000B010E948405D093BA00C093B800DF9176
:100BB000CF9108958F929F92AF92BF92CF92DF9282
:100BC000EF92FF920F931F93CF93DF93D0912F0457
:100BD000D13208F0D7C0182FC0912E040E943A03DA
:100BE0006B017C018091060481116BC082E08093CF
:100BF0000604109305048FEF8093040410920304FD
:100C0000D0930204AEE0B4E0E2EEF3E080E0D8136B
:100C100091C01092E1038091E103CC0FC82BC093E7
:100C2000E1038091E003813009F088C01092E00375
:100C30000E943A036B017C018091E1038093BB0029
:100C40008091080490910904A0910A04B0910B04CA
:100C5000892B8A2B8B2BA1F00E943A030091080468
:100C60001091090420910A0430910B046C197D093C
:100C70008E099F09061717072807390708F442C08D
:100C80008091BC0083FDD8CF85EC8093BC000E948E
:100C90003A036B017C0180910604823009F450C054
:100CA000809104048F3F09F46FC080910404803266
:100CB00009F46CC080910404803309F469C084E0B5
:100CC00026C08091080490910904A0910A04B09173
:100CD0000B04892B8A2B8B2B09F484CF0E943A03B7
:100CE0008090080490900904A0900A04B0900B042E
:100CF0006C197D098E099F0986169706A806B90604
:100D000008F070CF809107040E94B90585E0109229
:100D10000D0410922F0410920C04DF91CF911F91BB
:100D20000F91FF90EF90DF90CF90BF90AF909F908A
:100D30008F9008959D9191938F5F69CF85EEA5CF98
:100D40008091080490910904A0910A04B0910B04C9
:100D5000892B8A2B8B2B09F49ECF0E943A0300919A
:100D600008041091090420910A0430910B046C19B5
:100D70007D098E099F09061717072807390708F00C
:100D80008ACFC0CF81E0C3CF80E0C1CF82E0BFCFA8
:100D900083E0BDCF9C01AB0180910B0590910C05C8
:100DA0000097A9F0B90121E020930C0422E32093DD
:100DB0002E0410920D0410922F04DC01ED91FC9191
:100DC0000280F381E02D099581E00C94DA05809191
:100DD0000D0590910E05009741F0DC01ED91FC911D
:100DE0000280F381E02DB901099408951F93CF93F8
:100DF000DF93EA01122FDC0111968D919C91DC01A9
:100E0000ED91FC910280F381E02D0995C817D90777
:100E100029F4812F0E94DA0591E0811190E0892F59
:100E2000DF91CF911F910895CF93DF93EC018B81D8
:100E30008823A1F0888191E090930C0480932E0484
:100E400010920D0410922F0481E00E94DA0591E0C7
:100E5000811190E0892FDF91CF9108950E94A20522
:100E600081E08B83CE010E941407982F8111E2CF7D
:100E7000F1CF8F929F92AF92BF92CF92DF92EF927B
:100E8000FF920F931F93CF93DF93D82FC62F142F6A
:100E9000613208F09CC00E943A036B017C01809192
:100EA000060481116FC081E080930604109305044D
:100EB0009FEF90930404109203049C0F90930204FC
:100EC0008093E1038091E103DD0FD82BD093E10300
:100ED0008091E003813009F07CC01092E0030E9411
:100EE0003A036B017C018091E1038093BB00809108
:100EF000080490910904A0910A04B0910B04892B75
:100F00008A2B8B2BA1F00E943A03009108041091C8
:100F1000090420910A0430910B046C197D098E0993
:100F20009F09061717072807390708F44CC0809156
:100F3000BC0083FDD8CF85EC8093BC000E943A03AF
:100F40006B017C0180910604813009F444C08091DA
:100F500003048C1710F4C0910304E2EEF3E0A0EC5C
:100F6000B3E080E08C1359C08C2FDF91CF911F919B
:100F70000F91FF90EF90DF90CF90BF90AF909F9038
:100F80008F9008958091080490910904A0910A041B
:100F9000B0910B04892B8A2B8B2B09F480CF0E94F4
:100FA0003A038090080490900904A0900A04B0903D
:100FB0000B046C197D098E099F0986169706A806F1
:100FC000B90608F06CCF809107040E94B905C0E013
:100FD000CBCF85EEB1CF8091080490910904A09108
:100FE0000A04B0910B04892B8A2B8B2B09F4AACF0E
:100FF0000E943A03009108041091090420910A0408
:1010000030910B046C197D098E099F09061717078B
:101010002807390708F096CFD6CF91919D938F5F1F
:10102000A1CF0895E091BF038091BE03E81730F48B
:10103000F0E0E054FC4F808190E008958FEF9FEF47
:1010400008959091BF038091BE032FEF3FEF981753
:1010500048F4E92FF0E0E054FC4F208130E09F5F3E
:101060009093BF03C90108958091BE039091BF037F
:10107000891B990B0895CF92DF92EF92FF920F9305
:101080001F93CF93DF937C01CB018A0120910C0445
:10109000222389F0EB016B01C40ED51ECC15DD05B2
:1010A00069F06991D701ED91FC910190F081E02DFB
:1010B000C7010995F3CF642F0E945D05C801DF9138
:1010C000CF911F910F91FF90EF90DF90CF900895F7
:1010D000CF93DF931F92CDB7DEB7698320910C04C5
:1010E0002223F9F020912F04203258F021E030E043
:1010F000FC013383228390E080E00F90DF91CF9159
:10110000089580910D04E82FF0E0E25FFB4F998194
:1011100090838F5F80930D0480932F0481E090E093
:10112000ECCF61E0CE0101960E945D05F7CF90E023
:1011300080E00895CF93DF9320914203621327C08C
:10114000EC0185E090E090933D0380933C03109286
:101150003B0310923A0368830E94E3049A838983D5
:101160000E94E3049C838B830E94E3049E838D830F
:101170000E94E30498878F830E94E3049A878987FB
:1011800080913A03811110923A0381E001C080E01E
:10119000DF91CF9108950F931F93CF93C82F0E9493
:1011A0009103609313057093140580931505909334
:1011B00016050E94910300911305109114052091CA
:1011C000150530911605601B710B820B930B009176
:1011D0000F05109110052091110530911205061789
:1011E00017072807390708F46DC080910B05909107
:1011F0000C05009709F441C0DC01ED91FC910084DD
:10120000F185E02D0995892B49F441E060E182E305
:101210000E9439071092BF038093BE0380910B0593
:1012200090910C05DC01ED91FC910084F185E02D9D
:101230000995892B09F4BDCF80910B0590910C0580
:10124000DC01ED91FC910284F385E02D09950E946B
:101250000405882319F3CC2371F080914203C8134D
:10126000A8CF85E090E090933D0380933C031092DB
:101270003B0310923A0381E026C080910D059091C6
:101280000E05892B09F495CF80910D0590910E05DF
:10129000DC01ED91FC910084F185E02D0995892B0D
:1012A00009F487CF80910D0590910E05DC01ED9139
:1012B000FC910284F385E02D09950E9404058823A2
:1012C00019F3C9CF80E0CF911F910F910895CF936B
:1012D000DF9300D0CDB7DEB789836A8380910005A4
:1012E00090910105FC012481358122303105B8F04F
:1012F000208131E030930C0420932E0410920D04D1
:1013000010922F0421E042E050E0BE016F5F7F4F5A
:101310000E94F6060F900F90DF91CF91089580E024
:10132000F9CFEEEFF4E080879187682F8DE390E0AE
:101330000E9467096EE170E080E090E00C945F032A
:101340005F926F927F928F929F92AF92BF92CF9255
:10135000DF92EF92FF920F931F93CF93DF93DC0105
:101360001496ED91FC911597EF2B09F454C0690187
:101370003A01EC01888191E090930C0480932E0453
:1013800010920D0410922F0420E041E050E0CD01B6
:101390000E94F606582E8823F1F1F12CE12CEC1472
:1013A000FD04D0F58C819D8186010E191F098017DF
:1013B000910708F48C0141E0C601801B910BE816EF
:1013C000F90608F440E0602F013208F060E28881FD
:1013D0000E9439071092BF038093BE038017110645
:1013E000D1F443018E0C9F1C5401C5018819990941
:1013F0008017910768F489819A81DC01ED91FC9155
:101400000284F385E02D0995F50181935F01EDCF0D
:10141000E00EF11EC4CF512C852DDF91CF911F918D
:101420000F91FF90EF90DF90CF90BF90AF909F9083
:101430008F907F906F905F900895CF93DF931F926E
:10144000CDB7DEB7198221E030E0AE014F5F5F4FCC
:10145000BA0180910005909101050E94A00989813F
:101460000F90DF91CF910895FC0101900020E9F7E2
:101470003197AF01481B590BBC0180E394E00C94F9
:10148000B2038F929F92AF92BF920F931F93CF930D
:10149000DF93CDB7DEB7A1970FB6F894DEBF0FBECE
:1014A000CDBF19A2423008F44AE08E010F5D1F4FF4
:1014B000842E912CB12CA12CA50194010E94C61957
:1014C000E62FB901CA01EA30F4F4E05DD801EE93E9
:1014D0008D01232B242B252B79F790E080E01097AA
:1014E00019F0CD010E94340AA1960FB6F894DEBF20
:1014F0000FBECDBFDF91CF911F910F91BF90AF90E5
:101500009F908F900895E95CE1CFCF92DF92EF92A8
:10151000FF92CF93DF9397FF1BC06B017C016DE2BD
:1015200080E394E00E945204EC0166277727CB0108
:101530006C197D098E099F094AE00E94410A8C0FAF
:101540009D1FDF91CF91FF90EF90DF90CF90089596
:101550004AE0DF91CF91FF90EF90DF90CF900C9415
:10156000410ABC01990F880B990B0C94850ACF9303
:10157000DF930E94340AEC018FE391E00E94340A69
:101580008C0F9D1FDF91CF9108950C94340A4F92D8
:101590005F926F927F928F929F92AF92BF92CF9203
:1015A000DF92EF92FF926B017C01AC019B010E94E4
:1015B000FD1B882381F082E491E0FF90EF90DF90A3
:1015C000CF90BF90AF909F908F907F906F905F90E3
:1015D0004F900C94340A46015701E894B7F82FEF66
:1015E0003FEF4FE75FE7C501B4010E94FD1B81118A
:1015F0000DC02FEF3FEF4FE75FE7C501B4010E9439
:101600009E1A18161CF486E491E0D7CF2FEF3FEF17
:101610004FE75FE4C701B6010E948B1B18161CF44C
:101620008AE491E0CACF2FEF3FEF4FE75FECC701AD
:10163000B6010E949E1A87FDF3CF20E030E0A90199
:10164000C701B6010E949E1AB12CA12C87FF0AC0C7
:101650006DE280E394E00E9452045C01F7FAF0949A
:10166000F7F8F0942AE037ED43EA5BE3C701B601EF
:101670000E94321A2B013C010E94AA1A6B017C01C4
:101680000E94D91A9B01AC01C301B2010E94311A18
:101690002B013C014AE0C701B6010E94410A7C01CE
:1016A000EA0CFB1C6EE280E394E00E945204E80E18
:1016B000F91E20E030E040E251E4C301B2010E9493
:1016C000901B2B013C010E94AA1A4B01B12CA12CAA
:1016D0004AE0C501B4010E94410AE80EF91EC501A5
:1016E000B4010E94D91A9B01AC01C301B2010E944E
:1016F000311A20E030E040E251E40E94901B0E9449
:10170000AA1A90E080E04AE00E94410A8E0D9F1DD7
:10171000FF90EF90DF90CF90BF90AF909F908F9011
:101720007F906F905F904F9008950C949E1C8F92C5
:101730009F92AF92BF92CF92DF92EF92FF920F9360
:101740001F93CF93DF93CDB7DEB763970FB6F894AF
:10175000DEBF0FBECDBF7C018B01FB01349680E262
:10176000DF011D928A95E9F784E290E0A0E0B0E005
:10177000FB0180839183A283B383F70184819581E8
:10178000A681B781FB0184839583A683B78383E019
:1017900090E0A0E0B0E080879187A287B3870E94A5
:1017A0009103D80150966D937D938D939C9353979D
:1017B0008CE0FE013196DF011D928A95E9F7AE01BA
:1017C000435F5F4F86E0FA0111928A95E9F78AE15B
:1017D0008B8B26E030E0BE016D5E7F4FD701129605
:1017E0008D919C910E94A0096D857E85072E000C2D
:1017F000880B990B0E94DB1A20E030E040E85DE3A3
:101800000E94901B4B015C016F857889072E000CAC
:10181000880B990B0E94DB1A20E030E040E85DE382
:101820000E94901B6B017C0169897A89072E000C4C
:10183000880B990B0E94DB1A20E030E040E85DE362
:101840000E94901BF801848A958AA68AB78AC08E66
:10185000D18EE28EF38E648F758F868F978F81E0A5
:1018600063960FB6F894DEBF0FBECDBFDF91CF9168
:101870001F910F91FF90EF90DF90CF90BF90AF90AE
:101880009F908F9008950F931F93CF93DF938C01B8
:10189000EB0188E2FB0111928A95E9F74BE050E0F9
:1018A0006CE571E0CE010E94ED1D1B8681E090E0A9
:1018B000A0E0B0E08C879D87AE87BF87F801848168
:1018C0009581A681B781888B998BAA8BBB8B83E08E
:1018D00090E0A0E0B0E08C8B9D8BAE8BBF8B1CA208
:1018E0001DA21EA21FA2188E198E1A8E1B8E1C8E70
:1018F0001D8E1E8E1F8E8AE097EDA3E2BCE388A3A7
:1019000099A3AAA3BBA3DF91CF911F910F91089533
:1019100085ED8093BC008091080490910904A0910A
:101920000A04B0910B040796A11DB11D23E0B695E2
:10193000A795979587952A95D1F72091BC0024FD0E
:1019400003C01092060408954091080450910904C0
:1019500060910A0470910B04452B462B472B69F3C9
:101960000097A105B10541F02AE22A95F1F700C0E0
:101970000197A109B109E1CF809107040C94B90541
:101980000F931F93CF93DF93182FEB0160E00E941A
:101990000B0183E090E00197F1F761E0812F0E9455
:1019A0000B0183E290E00197F1F760E0812F0E9444
:1019B0000B01FE01E458FF4F6491FE01E656FF4F14
:1019C000E491F0E0EE0FFF1FE859FF4F85919491ED
:1019D00008EA11E620E030E0462F0E945E10611513
:1019E00071058105910529F06F5F7F4F8F4F9F4FE4
:1019F0009F700E94DB1A26E933E44BE85CE30E9407
:101A0000901B0E94A31A611571058105910521F4AF
:101A100060EA7FE080E090E0DF91CF911F910F912D
:101A200008951F920F920FB60F9211242F933F9398
:101A30008F939F93AF93BF9380911D0390911E034B
:101A4000A0911F03B091200330911C0323E0230FCA
:101A50002D3758F50196A11DB11D20931C038093CD
:101A60001D0390931E03A0931F03B0932003809146
:101A7000210390912203A0912303B09124030196A6
:101A8000A11DB11D8093210390932203A0932303F2
:101A9000B0932403BF91AF919F918F913F912F916C
:101AA0000F900FBE0F901F90189526E8230F0296F7
:101AB000A11DB11DD2CF1F920F920FB60F9211240C
:101AC0002F933F934F935F936F937F938F939F9346
:101AD000AF93BF93EF93FF93E0910201F091030165
:101AE0000995FF91EF91BF91AF919F918F917F9158
:101AF0006F915F914F913F912F910F900FBE0F907B
:101B00001F9018951F920F920FB60F9211242F93CA
:101B10003F934F935F936F937F938F939F93AF9375
:101B2000BF93EF93FF93E0910001F09101010995BC
:101B3000FF91EF91BF91AF919F918F917F916F91A5
:101B40005F914F913F912F910F900FBE0F901F907B
:101B500018951F920F920FB60F9211242F933F9357
:101B60004F935F936F937F938F939F93AF93BF93A5
:101B7000EF93FF9380912A0390912B03A0912C0364
:101B8000B0912D03892B8A2B8B2BD1F190912503BA
:101B9000E0912603F091270380818927808380913B
:101BA0002A0390912B03A0912C03B0912D031816BA
:101BB00019061A061B069CF480912A0390912B03A8
:101BC000A0912C03B0912D030197A109B109809335
:101BD0002A0390932B03A0932C03B0932D03FF9122
:101BE000EF91BF91AF919F918F917F916F915F9195
:101BF0004F913F912F910F900FBE0F901F9018950E
:101C000080910601EEEAF0E0E4919FEF90930601E7
:101C1000E13051F030F0E23069F060E00E940B01F9
:101C2000DECF10926E00F9CF90916F009D7F909360
:101C30006F00F3CF909170009D7F9093700091E0C2
:101C40009093B0009091B100987F94609093B10010
:101C50001092B300E2CF1F920F920FB60F92112491
:101C60002F933F934F935F936F937F938F939F93A4
:101C7000AF93BF93EF93FF9380E394E00E9430040F
:101C8000FF91EF91BF91AF919F918F917F916F9154
:101C90005F914F913F912F910F900FBE0F901F902A
:101CA00018951F920F920FB60F9211242F938F93B6
:101CB0009F93EF93FF93E0914004F0914104808162
:101CC000E0914604F091470482FD1BC09081809111
:101CD00049048F5F8F7320914A04821741F0E0918D
:101CE0004904F0E0E05DFB4F958F80934904FF913C
:101CF000EF919F918F912F910F900FBE0F901F909A
:101D000018958081F4CF1F920F920FB60F92112475
:101D10002F933F934F935F936F937F938F939F93F3
:101D2000AF93BF93CF93DF93EF93FF9380916A02BA
:101D3000C091F104D0E087FF24C01092850010927A
:101D4000840080916A028F5F80936A0280916A02A8
:101D5000082E000C990B8C179D0724F480916A02C1
:101D60008C30C4F180918400909185000496803479
:101D70009C4908F47AC08091840090918500049673
:101D800076C080916A02082E000C990B8C179D0773
:101D9000C4F6E0916A028E2FEE0F990BFC01EE0F54
:101DA000FF1FE80FF91FE353FB4F808186FFC9CF68
:101DB000E0916A028E2FEE0F990BFC01EE0FFF1FD0
:101DC000E80FF91FE353FB4F808160E08F730E949F
:101DD0000B01B7CF2091840030918500E0916A0219
:101DE0008E2FEE0F990BFC01EE0FFF1FE80FF91F6E
:101DF000E353FB4F81819281820F931F909389005F
:101E000080938800E0916A028E2FEE0F990BFC01FF
:101E1000EE0FFF1FE80FF91FE353FB4F808186FF92
:101E200011C0E0916A028E2FEE0F990BFC01EE0FAC
:101E3000FF1FE80FF91FE353FB4F808161E08F73B1
:101E40000E940B01FF91EF91DF91CF91BF91AF9174
:101E50009F918F917F916F915F914F913F912F91C2
:101E60000F900FBE0F901F90189580E49CE99093FF
:101E70008900809388008FEF80936A02E3CF1F92DE
:101E80000F920FB60F9211242F933F934F935F93AE
:101E90006F937F938F939F93AF93BF93EF93FF9332
:101EA0008091B900887F803609F44AC0F0F5883205
:101EB00009F4A7C018F5803109F49BC0B8F4882351
:101EC00009F4F9C0883009F494C0FF91EF91BF91F3
:101ED000AF919F918F917F916F915F914F913F91C2
:101EE0002F910F900FBE0F901F901895883109F415
:101EF00088C0803251F78093040414C0803409F400
:101F00009DC040F48033B9F38833F9F6809304041C
:101F100085ECB0C0803509F485C0883509F496C0D9
:101F2000883499F60E94880CD0CF883909F48CC087
:101F300038F5883729F050F4883611F0803729F6C3
:101F400083E0809306041092690257C0883809F430
:101F50007BC0803919F0803809F0B7CF80916902D1
:101F6000803208F071C0E091690281E08E0F8093A9
:101F700069028091BB00F0E0E75BFD4F80833DC0CC
:101F8000803B39F0E0F4803A09F479C0883A09F0EE
:101F90009CCF84E08093060410924802109247027E
:101FA000E0913803F091390309958091470281113E
:101FB0000FC081E0809347021092270209C0803C45
:101FC00009F4A6CF883C09F4A3CF883B09F07DCF64
:101FD000E091480281E08E0F80934802F0E0E95DD5
:101FE000FD4F80818093BB00909148028091470211
:101FF00029C08091E1038093BB0085EC8093BC00F5
:1020000064CF9091030480910204981758F5E091F1
:10201000030481E08E0F80930304F0E0EE51FC4F47
:102020008081E9CFE091030481E08E0F8093030467
:102030008091BB00F0E0EE51FC4F8083909103044F
:10204000809102049817C8F285E8D8CFE091030484
:1020500081E08E0F809303048091BB00F0E0EE518D
:10206000FC4F80838091050481115CCF81E08093D7
:10207000E00384EA8093BC001092060426CF85EC2E
:102080008093BC001092060480916902803230F483
:10209000E0916902F0E0E75BFD4F10826091690218
:1020A00070E0E0913603F091370389E492E00995FE
:1020B000109269020ACF1092040434CFCF92DF92BB
:1020C000EF92FF920F931F93E82FF92F05C0015055
:1020D00011092109310961F1908196239417B9F30F
:1020E00005C0015011092109310911F19081962390
:1020F0009413F7CFC12CD12CE12CF12C0AC08FEF17
:10210000C81AD80AE80AF80A0C151D052E053F055D
:1021100079F080818623841791F36C2D7D2D8E2D8F
:102120009F2D1F910F91FF90EF90DF90CF9008951A
:1021300060E070E080E090E01F910F91FF90EF90E1
:10214000DF90CF9008952091F2023091F302820F38
:10215000931F97FD46C09093F3028093F202809103
:10216000F2029091F302049724F01092F30210927D
:10217000F2028091F2029091F3022AE5289FB001C9
:10218000299F700D1124072E000C880B990B0E94BB
:10219000DB1A609318037093190380931A039093CA
:1021A0001B038091040190910501092E000CAA0BDC
:1021B000BB0B21E0209312034091130350911403B1
:1021C0006091150370911603840F951FA61FB71F0A
:1021D0008093F8029093F902A093FA02B093FB0265
:1021E000089583E090E0B7CF109233041092320448
:1021F00088EE93E0A0E0B0E080933404909335043F
:10220000A0933604B093370421E131E030933104D8
:102210002093300425EC30E030933D0420933C04BF
:1022200024EC30E030933F0420933E0420EC30E077
:10223000309341042093400421EC30E03093430478
:102240002093420422EC30E0309345042093440470
:1022500026EC30E030934704209346041092490462
:1022600010924A0410924B0410924C041092F50400
:102270001092F4048093F6049093F704A093F8046A
:10228000B093F90483E291E09093F3048093F20415
:1022900084E690E0A0E0B0E080930F0590931005F5
:1022A000A0931105B093120510921805109217050E
:1022B00010929A051092990510920C0510920B0538
:1022C00010920E0510920D052FEF20939B058FEFB6
:1022D0009FEF90939D0580939C0590939F0580931D
:1022E0009E059093A1058093A0059093A3058093EC
:1022F000A2059093A5058093A4051092DB0580911B
:10230000F1048C30C8F591E0980F9093F10480931C
:10231000080590E0FC01EE0FFF1FE80FF91FE353E3
:10232000FB4F88EB9BE09283818385E391E0909360
:10233000FF048093FE0487E390E0A0E0B0E0809388
:10234000020590930305A0930405B093050586E06C
:1023500090E00E94021CFC0188E2808382EF94E0FE
:1023600092838183138280E290E095838483F0934B
:102370000105E0930005089520930805D6CFCF937B
:10238000DF93CDB7DEB7C654D1090FB6F894DEBFE0
:102390000FBECDBF789484B5826084BD84B5816062
:1023A00084BD85B5826085BD85B5816085BD809120
:1023B0006E00816080936E00109281008091810098
:1023C0008260809381008091810081608093810090
:1023D000809180008160809380008091B100846052
:1023E0008093B1008091B00081608093B0008091B3
:1023F0007A00846080937A0080917A008260809372
:102400007A0080917A00816080937A0080917A00CE
:10241000806880937A001092C10061E088E00E9499
:102420005701E0914004F091410482E08083E09103
:102430003C04F0913D041082E0913E04F0913F0491
:1024400088ED808310924804E0914404F0914504A3
:1024500086E08083E0914204F091430480818061B2
:102460008083E0914204F0914304808188608083FE
:10247000E0914204F0914304808180688083E09180
:102480004204F091430480818F7D808361E085E088
:102490000E94570161E084E00E94570161E086E0FC
:1024A0000E94570162E083E00E9457018091080575
:1024B0008C3008F051C061E089E00E9457018091A2
:1024C0000805282F30E0F901EE0FFF1FE20FF31F80
:1024D000E353FB4F9081907C9960908310920905A3
:1024E00010920A052CE0622F0E94F719829FB0011A
:1024F000112430E020E0AB01420F531FFA01EE0F30
:10250000FF1FE40FF51FE353FB4F908196FD16C0AC
:102510002F5F3F4F2C30310571F781110FC01092A2
:10252000800082E0809381001092850010928400E8
:10253000B19A80916F00826080936F00E0910805EE
:102540008E2F90E0FC01EE0FFF1FE80FF91FE35301
:10255000FB4F8081806480838AE590E00E948F0039
:1025600064EF71E080E090E00E945F038AE590E014
:102570000E948F008DE993E0909303018093020104
:10258000809169008C6080936900E99A0091000550
:10259000109101050E94A20581E0D80113968C9349
:1025A00005E510E0DD24D394E0900005F0900105EE
:1025B0000E94A205F701D382C7010E94140781116E
:1025C0004CC66AE070E080E090E00E945F0301503A
:1025D000110951F78EE491E00E94B70AFFCF62E340
:1025E00070E080E090E00E945F0360E08EE390E0A6
:1025F0000E9467096AE070E080E090E00E945F035B
:1026000060E087E090E00E94670960E08FE390E07F
:102610000E9467096AE070E080E090E00E945F033A
:102620008CE090E00E94910964E170E080E090E02D
:102630000E945F03009106051091070590E080E07D
:102640000E94910969E170E080E090E00E945F03E0
:1026500060E087E090E00E94670960E88FE390E027
:102660000E9467096AE070E080E090E00E945F03EA
:10267000C8010E94910964E170E080E090E00E944E
:102680005F0361E080E10E94570160E081E10E9408
:10269000570161E08EE00E94570160E08FE00E94E8
:1026A0005701BE016F5F7F4F8EEF94E00E94970B42
:1026B0008D899E89AF89B88D8093180390931903F3
:1026C000A0931A03B0931B031092F3021092F2022C
:1026D0001092130310921403109215031092160314
:1026E0001092120368EE73E080E090E00E945F03B6
:1026F0000E94A20588E48093B80012EFE12E14E056
:10270000F12E05E5D02E8AEAC82E91E1992E2CE211
:10271000822E35E0A32EB12C10920E0510920D05DD
:10272000F0920C05E0920B0505E010E01092F1022A
:10273000D0927102C09272029092730280927502DE
:10274000B0927002A0926F020E94BF04BC0181E7A8
:1027500092E00E94CA068EE20E94CB088EAB8111E5
:10276000A4C50150110911F764E670E080E090E023
:102770000E945F03D1CF20E030E048E851ECC70170
:10278000B6010E949E1A881F8827881F8DAB14C22D
:102790008BE548165104610471043CF49BE58916ED
:1027A0009104A104B1040CF418C28CED95E013C29D
:1027B0008091990590919A056BE2800F911F0E947C
:1027C0009A0881116DC21FAE21961FAE21971DAED2
:1027D0001EAE1BAE1CAE19AE1AAE312C212C1DA69E
:1027E0001AA619A6EE24E394F12C60915A05709173
:1027F0005B05E0919905F0919A05DF0130E020E05A
:1028000090E080E026173707A4F44C914A3241F457
:1028100019964D915C911A97E416F50609F4019604
:102820002F5F3F4FA05CBF4FEDCFF2E0EF2EF12CBA
:10283000DCCF892B09F480C090E080E086179707F1
:102840000CF038C220812A3209F030C2218532854D
:10285000E216F30609F02AC2218122962FAF2297B1
:10286000328123963FAF239743814FAB548158AFBA
:10287000C580D68007811085B6010D2C000C880B11
:10288000990B9B01AC012A51310941095109273AA1
:1028900033404105510508F04FC098012E523109CF
:1028A0002B38344208F048C0C09E9001C19E300DC4
:1028B000D09E300D11243EA32DA349A55AA5421741
:1028C0005307D4F50E94DB1A27966CAF7DAF8EAF0D
:1028D0009FAF2797B801012E000C880B990B0E941F
:1028E000DB1A2DEC3CEC4CE85FE30E94901B9B0153
:1028F000AC0127966CAD7DAD8EAD9FAD27970E9444
:102900009E1A1816CCF08DA19EA19AA789A70FAF89
:1029100021961FAF2197CDAEDEAE9FA99BAFA8AD8C
:10292000ACAF2296BFAD2297B9AF2396EFAD2397F8
:10293000EAAF1701FEA9FDA722E0E216F10409F0B3
:1029400074CF3DA5332309F4D1C181E080931703EF
:102950004091130350911403609115037091160375
:1029600090911203992321F0809311031092120386
:1029700082E390E041E02416310431F052E0251664
:10298000310421F482E890E00E948F0080910A05D2
:1029900058E5C52E52E0D52EC81AD10887FDD3942C
:1029A000CC0CDD1CCC0CDD1C0D2C000CEE08FF0843
:1029B0008091090578E8872E912C881A910887FD67
:1029C0009394880C991C880C991C092C000CAA085B
:1029D000BB08809108058F3F09F485C190E0FC0198
:1029E000EE0FFF1FE80FF91FE353FB4F8181928128
:1029F00033E0880F991F3A95E1F7B0E0A0E044E09A
:102A0000B595A795979587954A95D1F702969C011C
:102A10002F5F3F4F032E000C440B550B281939092B
:102A20004A095B09A4EBB0E00E94B319A701960123
:102A3000281939094A095B090E949419C9012D38DE
:102A4000310514F08CE890E08832910514F488E2A6
:102A500090E00E948F0081E08093100388E790E06F
:102A60000E94930161E085E00E940B0160E084E038
:102A70000E940B0183E691E00E94C50AC1010E94F9
:102A8000B10A82E791E00E94C50A89AD9AAD0E9421
:102A9000B10A86E791E00E94C50A8BAD9CAD0E9409
:102AA000B10A8AE791E00E94C50A8DAD9EAD0E94F1
:102AB000B10A8EE791E00E94C50A8FAD21969FADC5
:102AC00021970E94B10A8FE391E00E94340A40E00E
:102AD00050E0452B29F00E941C0481110E94000047
:102AE000BE016F5F7F4F8EEF94E00E94970B2D89A0
:102AF0003E894F89588D29AB3AAB4BAB5CAB61E15A
:102B000070E080E190E00E94C00C2B013C016FE07E
:102B100070E08EE090E00E94C00C4B015C012091BF
:102B200018033091190340911A0350911B0369A9AE
:102B30007AA98BA99CA90E94311A6B017C0120E023
:102B400030E044E353E40E948B1B181654F420E059
:102B500030E044EB53E4C701B6010E94311A6B0127
:102B60007C0120E030E044E353ECC701B6010E9451
:102B70009E1A87FF0AC020E030E044EB53E4C7010F
:102B8000B6010E94321A6B017C0120E030E0A901FD
:102B9000C701B6010E948B1B18160CF0ECCD31E07A
:102BA0003DAB20E030E048E851E4C701B6010E94A7
:102BB0008B1B18160CF01DAA49EC44165104610435
:102BC00071043CF459EC85169104A104B1040CF491
:102BD000DFCD88E893E10E94EB0188E48093B800A0
:102BE0001092F10285E5809371028AEA8093720265
:102BF00081E18093730280E280937502A5E0B0E0EA
:102C0000B0937002A0936F020E94BF04BC0181E7E1
:102C100092E00E94CA06109218051092170589E2E8
:102C20000E94CB08882309F4CECD69E289E595E0BE
:102C30000E949A0860915A0570915B051616170656
:102C400014F061E070E0B6E0660F771FBA95E1F727
:102C50008091990590919A050E94271D90939A055D
:102C60008093990510E000E0F12CE12C80915A0549
:102C700090915B05E816F9060CF0A5CD80E00E9466
:102C8000CB08882309F49FCD8091990590919A05EE
:102C90006AE2800F911F0E949A08882309F488CD68
:102CA000BFEFEB1AFB0A005C1F4FE0CF0196E05C20
:102CB000FF4FC4CD80919C0522968FAF22979091B3
:102CC0009D0523969FAF2397A0919E05AFABB09132
:102CD0009F05B8AFC090A005D090A1050091A205B6
:102CE0001091A305C9CD90E080E091CE80911003B2
:102CF000882369F18AE590E00E948F00109210030A
:102D00001092170380911103882309F18091040127
:102D100090910501092E000CAA0BBB0B21E020931A
:102D200012034091130350911403609115037091A5
:102D30001603840F951FA61FB71F8093F802909368
:102D4000F902A093FA02B093FB02109211032091B2
:102D500018033091190340911A0350911B0369A97C
:102D60007AA98BA99CA90E94311A6B017C0120E0F1
:102D700030E044E353E40E948B1B181654F420E027
:102D800030E044EB53E4C701B6010E94311A6B01F5
:102D90007C0120E030E044E353ECC701B6010E941F
:102DA0009E1A87FF0AC020E030E044EB53E4C701DD
:102DB000B6010E94321A6B017C0120910C03309104
:102DC0000D0340910E0350910F03C701B6010E94FD
:102DD000321A6DA37EA38FA398A760930C03709300
:102DE0000D0380930E0390930F03209108033091FD
:102DF000090340910A0350910B03C701B6010E94D9
:102E0000311A2DEC3CEC4CE45FE30E94901B69A767
:102E10007AA78BA79CA726E636E646E050E4C701D2
:102E2000B6010E94901B6DA77EA78FA798AB20E0EC
:102E300030E0A9016DA17EA18FA198A50E94901BF1
:102E40009B01AC016DA57EA58FA598A90E94321AA1
:102E50009B01AC0169A57AA58BA59CA50E94321A9D
:102E60009B01AC0160E070E084EB92E40E94311AB7
:102E70000E94A31A6D38710514F06CE870E08B01A4
:102E80006832710514F408E210E0C8010E948F0056
:102E9000C0920803D0920903E0920A03F0920B0358
:102EA0000A55110917FF03C011950195110920E575
:102EB000209FC001219F900D112462E370E00E94C9
:102EC000031ACB0188960E94930161E085E00E947D
:102ED0000B0160E084E00E940B01809112038111DC
:102EE00070C18DA981116DC180911703811169C1D4
:102EF00080910703811165C1A4E8B3E0B093050197
:102F0000A09304018091050390910603009709F4B2
:102F10000FC18F3F980709F0C7C0ECE44E1651046B
:102F2000610471040CF454C06FE070E08EE090E036
:102F30000E94C00C10920501109204018FEF9FEFC8
:102F40000E94A31080910303909104030196909333
:102F50000403809303030C97B9F481E08093020388
:102F60008091130390911403A0911503B09116035F
:102F700088519C4FAF4FBF4F8093FE029093FF024A
:102F8000A0930003B093010381E0809307038FEFC8
:102F90009FEF9093FD028093FC02809107038823AA
:102FA000B9F08091FC029091FD028F3F980709F0E3
:102FB00080C1E0E54E165104610471040CF483C134
:102FC0001092F4021092F5021092F6021092F7029B
:102FD00082E891E00E94C50A69A97AA98BA99CA9F7
:102FE0000E94C70A8CE891E00E94C50A609118030C
:102FF0007091190380911A0390911B030E94C70AD4
:103000008AE991E00E94C50A8091F2029091F30250
:103010000E94B10A8BEA91E00E94C50A60911303F5
:103020007091140380911503909116030E94850AF4
:1030300088EB91E00E94C50AC301B2010E94850A93
:1030400084EC91E00E94C50AC501B4010E94850A82
:103050008FE391E00E94340A80910203882309F4EF
:10306000E8C04091130350911403609115037091CF
:1030700016038091FE029091FF02A0910003B0918F
:103080000103481759076A077B070CF420CD80ED30
:1030900091E00E94B70A60E085E00E940B0160E0C9
:1030A00084E00E940B01FFCF019709F091CFFCE46F
:1030B0008F169104A104B1040CF48ACF61E170E091
:1030C00080E190E00E94C00C109205011092040172
:1030D00081E090E00E94A31080910303909104038B
:1030E000019690930403809303030C97B9F481E055
:1030F000809302038091130390911403A091150310
:10310000B091160388519C4FAF4FBF4F8093FE0282
:103110009093FF02A0930003B093010381E080939A
:10312000070321E030E03093FD022093FC0235CF0D
:103130003CE44316510461047104F4F06FE070E064
:103140008EE090E00E94C00C1092050110920401E4
:103150008FEF9FEF0E94A3108091030390910403CF
:10316000019690930403809303032FEF3FEF309376
:10317000060320930503EFCE4CE484169104A104CA
:10318000B1040CF425CF61E170E080E190E00E9491
:10319000C00C109205011092040181E090E00E94A1
:1031A000A31080910303909104030196909304036C
:1031B00080930303A1E0B0E0B0930603A09305035E
:1031C00094CF4091130350911403609115037091B3
:1031D00016038091F8029091F902A091FA02B09141
:1031E000FB02481759076A077B070CF4D6CE20E08C
:1031F00030E0A901C701B6010E948B1B18166CF4C0
:1032000020E030E040E751E4C701B6010E949E1A79
:1032100087FFC3CE10921203C0CE20E030E040E71B
:1032200051ECC701B6010E948B1B18160CF0B5CEED
:10323000F1CF80910303909104030D970CF447CCD8
:1032400085EF91E00E94B70A60E085E00E940B01E3
:1032500060E084E00E940B01FFCF0E941D0A803ACB
:1032600059F068EE73E080E090E00E945F030E94F6
:103270001D0A803A09F0AEC990E080E00E949109F1
:1032800060E28FE390E00E9467096EE170E080E009
:1032900090E00E945F030E941D0A803A09F49FC9D2
:1032A0006AE070E080E090E0F4CF81E08093DB059D
:1032B00017CC019709F084CEF0E58F169104A10494
:1032C000B1040CF07DCE8091F4029091F502A091B2
:1032D000F602B091F702892B8A2B8B2B51F40E94B6
:1032E00091036093F4027093F5028093F602909339
:1032F000F7020E9491030091F4021091F5022091CF
:10330000F6023091F702601B710B820B930B6D3448
:1033100074408105910508F45BCE1092070310926A
:10332000FD021092FC024CCE052E97FB1EF4009479
:103330000E94AB1957FD07D00E94C61907FC03D0A5
:103340004EF40C94AB1950954095309521953F4F14
:103350004F4F5F4F089590958095709561957F4F81
:103360008F4F9F4F08950E94E819A59F900DB49F1D
:10337000900DA49F800D911D11240895B7FF0C940A
:10338000B3190E94B319821B930B0895A1E21A2E60
:10339000AA1BBB1BFD010DC0AA1FBB1FEE1FFF1FF9
:1033A000A217B307E407F50720F0A21BB30BE40B49
:1033B000F50B661F771F881F991F1A9469F7609590
:1033C0007095809590959B01AC01BD01CF0108954A
:1033D000A29FB001B39FC001A39F700D811D112456
:1033E000911DB29F700D811D1124911D0895991B8F
:1033F00079E004C0991F961708F0961B881F7A95EC
:10340000C9F78095089597FB072E16F4009407D00E
:1034100077FD09D00E94171A07FC05D03EF490955D
:1034200081959F4F0895709561957F4F0895AA1BD0
:10343000BB1B51E107C0AA1FBB1FA617B70710F09F
:10344000A61BB70B881F991F5A95A9F780959095D1
:10345000BC01CD010895EE0FFF1F0590F491E02D02
:1034600009945058BB27AA270E94491A0C94511B53
:103470000E94431B38F00E944A1B20F039F49F3F02
:1034800019F426F40C94401B0EF4E095E7FB0C9421
:103490003A1BE92F0E94621B58F3BA1762077307A1
:1034A0008407950720F079F4A6F50C94841B0EF49C
:1034B000E0950B2EBA2FA02D0B01B90190010C0144
:1034C000CA01A0011124FF27591B99F0593F50F45C
:1034D000503E68F11A16F040A22F232F342F4427B4
:1034E000585FF3CF469537952795A795F0405395AC
:1034F000C9F77EF41F16BA0B620B730B840BBAF07C
:103500009150A1F0FF0FBB1F661F771F881FC2F7E6
:103510000EC0BA0F621F731F841F48F487957795FA
:103520006795B795F7959E3F08F0B0CF9395880FB4
:1035300008F09927EE0F9795879508950E94161B1E
:1035400008F481E008950E94AA1A6894B1110C94BD
:10355000851B08950E946A1B88F09F5798F0B92F29
:103560009927B751B0F0E1F0660F771F881F991FB8
:103570001AF0BA95C9F714C0B13091F00E94841BBB
:10358000B1E008950C94841B672F782F8827B85FCB
:1035900039F0B93FCCF3869577956795B395D9F710
:1035A0003EF490958095709561957F4F8F4F9F4F1A
:1035B0000895E89409C097FB3EF490958095709526
:1035C00061957F4F8F4F9F4F9923A9F0F92F96E96F
:1035D000BB279395F695879577956795B795F111E4
:1035E000F8CFFAF4BB0F11F460FF1BC06F5F7F4F81
:1035F0008F4F9F4F16C0882311F096E911C0772393
:1036000021F09EE8872F762F05C0662371F096E89B
:10361000862F70E060E02AF09A95660F771F881F6A
:10362000DAF7880F9695879597F90895990F00080E
:10363000550FAA0BE0E8FEEF16161706E807F90784
:10364000C0F012161306E407F50798F0621B730B1F
:10365000840B950B39F40A2661F0232B242B252BA0
:1036600021F408950A2609F4A140A6958FEF811D43
:10367000811D089597F99F6780E870E060E00895E4
:103680009FEF80EC089500240A941616170618067A
:103690000906089500240A94121613061406050656
:1036A0000895092E0394000C11F4882352F0BB0FE7
:1036B00040F4BF2B11F460FF04C06F5F7F4F8F4F4A
:1036C0009F4F089557FD9058440F551F59F05F3F85
:1036D00071F04795880F97FB991F61F09F3F79F034
:1036E00087950895121613061406551FF2CF4695B6
:1036F000F1DF08C0161617061806991FF1CF869538
:103700007105610508940895E894BB27662777271B
:10371000CB0197F908950E94161B08F48FEF0895C6
:103720000E94A31B0C94511B0E94431B38F00E9463
:103730004A1B20F0952311F00C943A1B0C94401B6B
:1037400011240C94851B0E94621B70F3959FC1F39A
:10375000950F50E0551F629FF001729FBB27F00D3F
:10376000B11D639FAA27F00DB11DAA1F649F662794
:10377000B00DA11D661F829F2227B00DA11D621FE3
:10378000739FB00DA11D621F839FA00D611D221F9D
:10379000749F3327A00D611D231F849F600D211D81
:1037A000822F762F6A2F11249F5750409AF0F1F004
:1037B00088234AF0EE0FFF1FBB1F661F771F881F6D
:1037C00091505040A9F79E3F510580F00C943A1B50
:1037D0000C94851B5F3FE4F3983ED4F38695779570
:1037E0006795B795F795E7959F5FC1F7FE2B880F13
:1037F000911D9695879597F908950E94161B880B41
:10380000990B08950F931F93CF93DF938230910507
:1038100010F482E090E0E091DE05F091DF0530E009
:1038200020E0B0E0A0E0309799F42115310509F4CB
:103830004AC0281B390B24303105D8F58A819B8179
:103840006115710589F1FB0193838283FE0111C02B
:10385000408151810281138148175907E0F04817D0
:10386000590799F4109761F012960C9312971396DA
:103870001C933296CF01DF91CF911F910F91089544
:103880000093DE051093DF05F4CF2115310551F0CB
:103890004217530738F0A901DB019A01BD01DF018E
:1038A000F801C1CFEF01F9CF9093DF058093DE05DA
:1038B000CDCFFE01E20FF31F819391932250310986
:1038C00039832883D7CF2091DC053091DD05232B68
:1038D00041F42091090130910A013093DD052093D4
:1038E000DC0520910701309108012115310541F4D3
:1038F0002DB73EB740910B0150910C01241B350BA5
:10390000E091DC05F091DD05E217F307A0F42E1B32
:103910003F0B2817390778F0AC014E5F5F4F241733
:10392000350748F04E0F5F1F5093DD054093DC05CF
:10393000819391939FCFF0E0E0E09CCFCF93DF9312
:103940000097E9F0FC01329713821282A091DE0504
:10395000B091DF05ED0130E020E01097A1F4208167
:103960003181820F931F2091DC053091DD052817EE
:10397000390709F061C0F093DD05E093DC05DF91C4
:10398000CF910895EA01CE17DF07E8F54A815B8100
:103990009E0141155105B1F7E901FB83EA83499185
:1039A0005991C40FD51FEC17FD0761F480819181F7
:1039B0000296840F951FE901998388838281938100
:1039C0009B838A83F0E0E0E012968D919C9113979F
:1039D0000097B9F52D913C911197CD010296820F78
:1039E000931F2091DC053091DD052817390739F642
:1039F000309751F51092DF051092DE05B093DD058A
:103A0000A093DC05BCCFD383C28340815181840F56
:103A1000951FC817D90761F44E5F5F4F8881998160
:103A2000480F591F518340838A819B8193838283EE
:103A30002115310509F0B0CFF093DF05E093DE05E5
:103A40009ECFFD01DC01C0CF13821282D7CFB0E040
:103A5000A0E0EDE2FDE10C94FE1D8C01009751F415
:103A6000CB010E94021C8C01C801CDB7DEB7E0E19A
:103A70000C941A1EFC01E60FF71F9C01225031091D
:103A8000E217F30708F49DC0D901CD91DC9111979D
:103A9000C617D70798F0C530D10530F3CE0104978B
:103AA0008617970708F3C61BD70B2297C193D193AC
:103AB0006D937C93CF010E949E1CD6CF5B01AC1A04
:103AC000BD0A4C018C0E9D1EA091DE05B091DF0554
:103AD000512C412CF12CE12C109731F58091DC0513
:103AE0009091DD058815990509F05CC046165706CA
:103AF00008F058C08091070190910801009741F4A7
:103B00008DB79EB740910B0150910C01841B950B12
:103B1000E817F90708F055C0F093DD05E093DC05E0
:103B2000F90171836083A0CF8D919C9111971296BA
:103B30006C90129713967C901397A815B90559F5B8
:103B40006C0142E0C40ED11CCA14DB0420F1AC01AC
:103B50004A195B09DA011296159780F06282738226
:103B600051834083D9016D937C93E114F10471F08A
:103B7000D7011396FC93EE93129776CF22968C0F73
:103B80009D1FF90191838083F301EFCFF093DF054F
:103B9000E093DE0569CF4816590608F42C017D0133
:103BA000D3019ACFCB010E94021C7C01009749F0FF
:103BB000AE01B8010E94E41DC8010E949E1C87014D
:103BC00053CF10E000E050CFFB01DC0102C00190B8
:103BD0000D9241505040D8F70895FB01DC0141504F
:103BE000504048F001900D920020C9F701C01D928D
:103BF00041505040E0F708952F923F924F925F92CC
:103C00006F927F928F929F92AF92BF92CF92DF92EC
:103C1000EF92FF920F931F93CF93DF93CDB7DEB751
:103C2000CA1BDB0B0FB6F894DEBF0FBECDBF0994E5
:103C30002A88398848885F846E847D848C849B843C
:103C4000AA84B984C884DF80EE80FD800C811B814A
:103C5000AA81B981CE0FD11D0FB6F894DEBF0FBE79
:0A3C6000CDBFED010895F894FFCFE9
:103C6A00B103B103BC02FF0000E0058000000000C0
:103C7A00005204B203DF039F041004EE030204009F
:103C8A0000000068083B0897081108340821081248
:103C9A0008000000005B05950B5C05970B430C0DB3
:103CAA000A006E616E00696E66006F7666004E6F7E
:103CBA00207365206465746563746120424E4F30D9
:103CCA003535004855534B596C656E733A20494453
:103CDA003D0020583D0020593D0020573D00204816
:103CEA003D0048656164696E673A2000207C205374
:103CFA006574706F696E743A2000207C204F726977
:103D0A00656E746174696F6E3A2000207C20456E7E
:103D1A00636F6465723A2000207C20555320497AEB
:103D2A00713A2000207C205553204465723A2000C5
:103D3A004176616E636520657874726120636F6D88
:103D4A00706C657461646F2E20446574656E696574
:103D5A006E646F2E004EC3BA6D65726F206DC3A17B
:103D6A0078696D6F206465206769726F7320616C72
:103D7A0063616E7A61646F2E20446574656E69654D
:063D8A006E646F2E0000C4
:00000001FF
